{
  "transactions": [
    {
      "hash": "0x28b4f011eccffa51f759be3cf23cfcdfaf925f4a51ed29a4ddaff06a8d31b7bd",
      "transactionType": "CALL",
      "contractName": null,
      "contractAddress": "0xff829e190a36841cd09ce323ef71d1462c734aaa",
      "function": "mintNft(string)",
      "arguments": [
        "ipfs://bafybeig37ioir76s7mg5oobetncojcm3c3hxasyd4rvid4jqhy4gkaheg4/?filename=0-PUG.json"
      ],
      "transaction": {
        "from": "0xff445b3c5ec907cee26e59cb17ff85c468a1eb45",
        "to": "0xff829e190a36841cd09ce323ef71d1462c734aaa",
        "gas": "0x3d60d",
        "value": "0x0",
        "input": "0xda86f4a900000000000000000000000000000000000000000000000000000000000000200000000000000000000000000000000000000000000000000000000000000057697066733a2f2f62616679626569673337696f6972373673376d67356f6f6265746e636f6a636d3363336878617379643472766964346a71687934676b61686567342f3f66696c656e616d653d302d5055472e6a736f6e000000000000000000",
        "nonce": "0xb",
        "chainId": "0xaa36a7"
      },
      "additionalContracts": [],
      "isFixedGasLimit": false
    }
  ],
  "receipts": [
    {
      "status": "0x1",
      "cumulativeGasUsed": "0x3e52b5",
      "logs": [
        {
          "address": "0xff829e190a36841cd09ce323ef71d1462c734aaa",
          "topics": [
            "0xddf252ad1be2c89b69c2b068fc378daa952ba7f163c4a11628f55a4df523b3ef",
            "0x0000000000000000000000000000000000000000000000000000000000000000",
            "0x000000000000000000000000ff445b3c5ec907cee26e59cb17ff85c468a1eb45",
            "0x0000000000000000000000000000000000000000000000000000000000000000"
          ],
          "data": "0x",
          "blockHash": "0x03729eac790456eb0541c214c14af3c89f4bef773210e1a6da73418df9c7635d",
          "blockNumber": "0x676653",
          "transactionHash": "0x28b4f011eccffa51f759be3cf23cfcdfaf925f4a51ed29a4ddaff06a8d31b7bd",
          "transactionIndex": "0xb",
          "logIndex": "0x13",
          "removed": false
        }
      ],
      "logsBloom": "0x00000000000000000000000000000000000000000000000000000000000000000000000000000000000000000000000000000000000000000000000001000000000000000000000000000008000000000000000000000000000000000000000000000000020000000000000000000800000000000000000000000010000000000000000000000000000000000000000000000000000004000000000000000000000100000000000000000000000000000000008000000000000000000000000004000002000000000000000000000000000000000000000000000000000020000000000000000000000000000000000000000000000000000000000000000000",
      "type": "0x2",
      "transactionHash": "0x28b4f011eccffa51f759be3cf23cfcdfaf925f4a51ed29a4ddaff06a8d31b7bd",
      "transactionIndex": "0xb",
      "blockHash": "0x03729eac790456eb0541c214c14af3c89f4bef773210e1a6da73418df9c7635d",
      "blockNumber": "0x676653",
      "gasUsed": "0x2c6fe",
      "effectiveGasPrice": "0x1f2aaecf88",
      "from": "0xff445b3c5ec907cee26e59cb17ff85c468a1eb45",
      "to": "0xff829e190a36841cd09ce323ef71d1462c734aaa",
      "contractAddress": null
    }
  ],
  "libraries": [],
  "pending": [],
  "returns": {},
  "timestamp": 1727545555,
  "chain": 11155111,
  "commit": "8090a5f"
}